{
  "_format": "hh-sol-artifact-1",
  "contractName": "Upload",
  "sourceName": "contracts/Upload.sol",
  "abi": [
    {
      "inputs": [
        {
          "internalType": "address",
          "name": "_userId",
          "type": "address"
        },
        {
          "internalType": "string",
          "name": "_url",
          "type": "string"
        }
      ],
      "name": "addUrl",
      "outputs": [],
      "stateMutability": "nonpayable",
      "type": "function"
    },
    {
      "inputs": [
        {
          "internalType": "address",
          "name": "_userId",
          "type": "address"
        }
      ],
      "name": "allowAccess",
      "outputs": [],
      "stateMutability": "nonpayable",
      "type": "function"
    },
    {
      "inputs": [
        {
          "internalType": "address",
          "name": "_userId",
          "type": "address"
        }
      ],
      "name": "disallowAccess",
      "outputs": [],
      "stateMutability": "nonpayable",
      "type": "function"
    },
    {
      "inputs": [
        {
          "internalType": "address",
          "name": "_userId",
          "type": "address"
        }
      ],
      "name": "display",
      "outputs": [
        {
          "internalType": "string[]",
          "name": "",
          "type": "string[]"
        }
      ],
      "stateMutability": "view",
      "type": "function"
    },
    {
      "inputs": [],
      "name": "shareAccess",
      "outputs": [
        {
          "components": [
            {
              "internalType": "address",
              "name": "user",
              "type": "address"
            },
            {
              "internalType": "bool",
              "name": "access",
              "type": "bool"
            }
          ],
          "internalType": "struct Upload.Access[]",
          "name": "",
          "type": "tuple[]"
        }
      ],
      "stateMutability": "view",
      "type": "function"
    }
  ],
  "bytecode": "0x6080604052348015600f57600080fd5b506112e38061001f6000396000f3fe608060405234801561001057600080fd5b50600436106100575760003560e01c8063b4449c301461005c578063bc8bef8114610078578063c4a85bc114610096578063eb39113f146100b2578063f1f07c54146100e2575b600080fd5b61007660048036038101906100719190610b51565b6100fe565b005b61008061030f565b60405161008d9190610c86565b60405180910390f35b6100b060048036038101906100ab9190610b51565b610417565b005b6100cc60048036038101906100c79190610b51565b610852565b6040516100d99190610dfa565b60405180910390f35b6100fc60048036038101906100f79190610e81565b610a69565b005b6000600360003373ffffffffffffffffffffffffffffffffffffffff1673ffffffffffffffffffffffffffffffffffffffff16815260200190815260200160002060008373ffffffffffffffffffffffffffffffffffffffff1673ffffffffffffffffffffffffffffffffffffffff16815260200190815260200160002060006101000a81548160ff02191690831515021790555060005b6000803373ffffffffffffffffffffffffffffffffffffffff1673ffffffffffffffffffffffffffffffffffffffff1681526020019081526020016000208054905081101561030b578173ffffffffffffffffffffffffffffffffffffffff166000803373ffffffffffffffffffffffffffffffffffffffff1673ffffffffffffffffffffffffffffffffffffffff168152602001908152602001600020828154811061024657610245610ee1565b5b9060005260206000200160000160009054906101000a900473ffffffffffffffffffffffffffffffffffffffff1673ffffffffffffffffffffffffffffffffffffffff16036102fe57600015156000803373ffffffffffffffffffffffffffffffffffffffff1673ffffffffffffffffffffffffffffffffffffffff16815260200190815260200160002082815481106102e3576102e2610ee1565b5b9060005260206000200160000160149054906101000a905050505b8080600101915050610196565b5050565b60606000803373ffffffffffffffffffffffffffffffffffffffff1673ffffffffffffffffffffffffffffffffffffffff168152602001908152602001600020805480602002602001604051908101604052809291908181526020016000905b8282101561040e578382906000526020600020016040518060400160405290816000820160009054906101000a900473ffffffffffffffffffffffffffffffffffffffff1673ffffffffffffffffffffffffffffffffffffffff1673ffffffffffffffffffffffffffffffffffffffff1681526020016000820160149054906101000a900460ff1615151515815250508152602001906001019061036f565b50505050905090565b6001600360003373ffffffffffffffffffffffffffffffffffffffff1673ffffffffffffffffffffffffffffffffffffffff16815260200190815260200160002060008373ffffffffffffffffffffffffffffffffffffffff1673ffffffffffffffffffffffffffffffffffffffff16815260200190815260200160002060006101000a81548160ff02191690831515021790555060011515600260003373ffffffffffffffffffffffffffffffffffffffff1673ffffffffffffffffffffffffffffffffffffffff16815260200190815260200160002060008373ffffffffffffffffffffffffffffffffffffffff1673ffffffffffffffffffffffffffffffffffffffff16815260200190815260200160002060009054906101000a900460ff161515036106bf5760005b6000803373ffffffffffffffffffffffffffffffffffffffff1673ffffffffffffffffffffffffffffffffffffffff168152602001908152602001600020805490508110156106b9578173ffffffffffffffffffffffffffffffffffffffff166000803373ffffffffffffffffffffffffffffffffffffffff1673ffffffffffffffffffffffffffffffffffffffff16815260200190815260200160002082815481106105f4576105f3610ee1565b5b9060005260206000200160000160009054906101000a900473ffffffffffffffffffffffffffffffffffffffff1673ffffffffffffffffffffffffffffffffffffffff16036106ac57600115156000803373ffffffffffffffffffffffffffffffffffffffff1673ffffffffffffffffffffffffffffffffffffffff168152602001908152602001600020828154811061069157610690610ee1565b5b9060005260206000200160000160149054906101000a905050505b8080600101915050610544565b5061084f565b6000803373ffffffffffffffffffffffffffffffffffffffff1673ffffffffffffffffffffffffffffffffffffffff16815260200190815260200160002060405180604001604052808373ffffffffffffffffffffffffffffffffffffffff168152602001600115158152509080600181540180825580915050600190039060005260206000200160009091909190915060008201518160000160006101000a81548173ffffffffffffffffffffffffffffffffffffffff021916908373ffffffffffffffffffffffffffffffffffffffff16021790555060208201518160000160146101000a81548160ff02191690831515021790555050506001600260003373ffffffffffffffffffffffffffffffffffffffff1673ffffffffffffffffffffffffffffffffffffffff16815260200190815260200160002060008373ffffffffffffffffffffffffffffffffffffffff1673ffffffffffffffffffffffffffffffffffffffff16815260200190815260200160002060006101000a81548160ff0219169083151502179055505b50565b60603373ffffffffffffffffffffffffffffffffffffffff168273ffffffffffffffffffffffffffffffffffffffff1614806109145750600360008373ffffffffffffffffffffffffffffffffffffffff1673ffffffffffffffffffffffffffffffffffffffff16815260200190815260200160002060003373ffffffffffffffffffffffffffffffffffffffff1673ffffffffffffffffffffffffffffffffffffffff16815260200190815260200160002060009054906101000a900460ff165b610953576040517f08c379a000000000000000000000000000000000000000000000000000000000815260040161094a90610f6d565b60405180910390fd5b600160008373ffffffffffffffffffffffffffffffffffffffff1673ffffffffffffffffffffffffffffffffffffffff168152602001908152602001600020805480602002602001604051908101604052809291908181526020016000905b82821015610a5e5783829060005260206000200180546109d190610fbc565b80601f01602080910402602001604051908101604052809291908181526020018280546109fd90610fbc565b8015610a4a5780601f10610a1f57610100808354040283529160200191610a4a565b820191906000526020600020905b815481529060010190602001808311610a2d57829003601f168201915b5050505050815260200190600101906109b2565b505050509050919050565b600160008473ffffffffffffffffffffffffffffffffffffffff1673ffffffffffffffffffffffffffffffffffffffff168152602001908152602001600020828290918060018154018082558091505060019003906000526020600020016000909192909192909192909192509182610ae39291906111dd565b50505050565b600080fd5b600080fd5b600073ffffffffffffffffffffffffffffffffffffffff82169050919050565b6000610b1e82610af3565b9050919050565b610b2e81610b13565b8114610b3957600080fd5b50565b600081359050610b4b81610b25565b92915050565b600060208284031215610b6757610b66610ae9565b5b6000610b7584828501610b3c565b91505092915050565b600081519050919050565b600082825260208201905092915050565b6000819050602082019050919050565b610bb381610b13565b82525050565b60008115159050919050565b610bce81610bb9565b82525050565b604082016000820151610bea6000850182610baa565b506020820151610bfd6020850182610bc5565b50505050565b6000610c0f8383610bd4565b60408301905092915050565b6000602082019050919050565b6000610c3382610b7e565b610c3d8185610b89565b9350610c4883610b9a565b8060005b83811015610c79578151610c608882610c03565b9750610c6b83610c1b565b925050600181019050610c4c565b5085935050505092915050565b60006020820190508181036000830152610ca08184610c28565b905092915050565b600081519050919050565b600082825260208201905092915050565b6000819050602082019050919050565b600081519050919050565b600082825260208201905092915050565b60005b83811015610d0e578082015181840152602081019050610cf3565b60008484015250505050565b6000601f19601f8301169050919050565b6000610d3682610cd4565b610d408185610cdf565b9350610d50818560208601610cf0565b610d5981610d1a565b840191505092915050565b6000610d708383610d2b565b905092915050565b6000602082019050919050565b6000610d9082610ca8565b610d9a8185610cb3565b935083602082028501610dac85610cc4565b8060005b85811015610de85784840389528151610dc98582610d64565b9450610dd483610d78565b925060208a01995050600181019050610db0565b50829750879550505050505092915050565b60006020820190508181036000830152610e148184610d85565b905092915050565b600080fd5b600080fd5b600080fd5b60008083601f840112610e4157610e40610e1c565b5b8235905067ffffffffffffffff811115610e5e57610e5d610e21565b5b602083019150836001820283011115610e7a57610e79610e26565b5b9250929050565b600080600060408486031215610e9a57610e99610ae9565b5b6000610ea886828701610b3c565b935050602084013567ffffffffffffffff811115610ec957610ec8610aee565b5b610ed586828701610e2b565b92509250509250925092565b7f4e487b7100000000000000000000000000000000000000000000000000000000600052603260045260246000fd5b600082825260208201905092915050565b7f596f7520646f6e27742068617665206163636573730000000000000000000000600082015250565b6000610f57601583610f10565b9150610f6282610f21565b602082019050919050565b60006020820190508181036000830152610f8681610f4a565b9050919050565b7f4e487b7100000000000000000000000000000000000000000000000000000000600052602260045260246000fd5b60006002820490506001821680610fd457607f821691505b602082108103610fe757610fe6610f8d565b5b50919050565b600082905092915050565b7f4e487b7100000000000000000000000000000000000000000000000000000000600052604160045260246000fd5b60008190508160005260206000209050919050565b60006020601f8301049050919050565b600082821b905092915050565b6000600883026110897fffffffffffffffffffffffffffffffffffffffffffffffffffffffffffffffff8261104c565b611093868361104c565b95508019841693508086168417925050509392505050565b6000819050919050565b6000819050919050565b60006110da6110d56110d0846110ab565b6110b5565b6110ab565b9050919050565b6000819050919050565b6110f4836110bf565b611108611100826110e1565b848454611059565b825550505050565b600090565b61111d611110565b6111288184846110eb565b505050565b5b8181101561114c57611141600082611115565b60018101905061112e565b5050565b601f8211156111915761116281611027565b61116b8461103c565b8101602085101561117a578190505b61118e6111868561103c565b83018261112d565b50505b505050565b600082821c905092915050565b60006111b460001984600802611196565b1980831691505092915050565b60006111cd83836111a3565b9150826002028217905092915050565b6111e78383610fed565b67ffffffffffffffff811115611200576111ff610ff8565b5b61120a8254610fbc565b611215828285611150565b6000601f8311600181146112445760008415611232578287013590505b61123c85826111c1565b8655506112a4565b601f19841661125286611027565b60005b8281101561127a57848901358255600182019150602085019450602081019050611255565b868310156112975784890135611293601f8916826111a3565b8355505b6001600288020188555050505b5050505050505056fea26469706673582212205077da549eca3ef8845eed5856cd4e6662fe6c4a18cdfcd129134a84357ecd7364736f6c634300081a0033",
  "linkReferences": {},
  "deployedLinkReferences": {}
}